{
  "_format": "hh-sol-artifact-1",
  "contractName": "BuyCapsules",
  "sourceName": "contracts/BuyCapsules.sol",
  "abi": [
    {
      "inputs": [],
      "stateMutability": "nonpayable",
      "type": "constructor"
    },
    {
      "inputs": [
        {
          "internalType": "uint256",
          "name": "_tokenamount",
          "type": "uint256"
        }
      ],
      "name": "Approvetokens",
      "outputs": [
        {
          "internalType": "bool",
          "name": "",
          "type": "bool"
        }
      ],
      "stateMutability": "nonpayable",
      "type": "function"
    },
    {
      "inputs": [],
      "name": "GetAllowance",
      "outputs": [
        {
          "internalType": "uint256",
          "name": "",
          "type": "uint256"
        }
      ],
      "stateMutability": "view",
      "type": "function"
    },
    {
      "inputs": [],
      "name": "GetCapsulePrice",
      "outputs": [
        {
          "internalType": "uint256",
          "name": "",
          "type": "uint256"
        }
      ],
      "stateMutability": "view",
      "type": "function"
    },
    {
      "inputs": [],
      "name": "GetContractTokenBalance",
      "outputs": [
        {
          "internalType": "uint256",
          "name": "",
          "type": "uint256"
        }
      ],
      "stateMutability": "view",
      "type": "function"
    },
    {
      "inputs": [
        {
          "internalType": "uint256",
          "name": "_tokenamount",
          "type": "uint256"
        }
      ],
      "name": "buyCapsule",
      "outputs": [
        {
          "internalType": "bool",
          "name": "",
          "type": "bool"
        }
      ],
      "stateMutability": "nonpayable",
      "type": "function"
    }
  ],
  "bytecode": "0x608060405234801561001057600080fd5b507388ce85dfe8f05646589f9c0ca47dc9cd42053d166000806101000a81548173ffffffffffffffffffffffffffffffffffffffff021916908373ffffffffffffffffffffffffffffffffffffffff160217905550732185049516408abd4f5c22d62f69bd27057aaa88600160006101000a81548173ffffffffffffffffffffffffffffffffffffffff021916908373ffffffffffffffffffffffffffffffffffffffff16021790555067a688906bd8b00000600281905550610977806100d86000396000f3fe608060405234801561001057600080fd5b50600436106100575760003560e01c806309e2953a1461005c578063348c6c041461008c57806343b65ff3146100aa57806353edc614146100c857806373d5294b146100e6575b600080fd5b6100766004803603810190610071919061059d565b610116565b6040516100839190610757565b60405180910390f35b61009461030d565b6040516100a191906107b2565b60405180910390f35b6100b2610317565b6040516100bf91906107b2565b60405180910390f35b6100d06103c8565b6040516100dd91906107b2565b60405180910390f35b61010060048036038101906100fb919061059d565b61047b565b60405161010d9190610757565b60405180910390f35b60006101206103c8565b821015610162576040517f08c379a000000000000000000000000000000000000000000000000000000000815260040161015990610792565b60405180910390fd5b60025482146101a6576040517f08c379a000000000000000000000000000000000000000000000000000000000815260040161019d90610772565b60405180910390fd5b60008054906101000a900473ffffffffffffffffffffffffffffffffffffffff1673ffffffffffffffffffffffffffffffffffffffff166323b872dd3330856040518463ffffffff1660e01b8152600401610203939291906106c9565b602060405180830381600087803b15801561021d57600080fd5b505af1158015610231573d6000803e3d6000fd5b505050506040513d601f19601f820116820180604052508101906102559190610574565b50600160009054906101000a900473ffffffffffffffffffffffffffffffffffffffff1673ffffffffffffffffffffffffffffffffffffffff1663e0021913336040518263ffffffff1660e01b81526004016102b19190610700565b602060405180830381600087803b1580156102cb57600080fd5b505af11580156102df573d6000803e3d6000fd5b505050506040513d601f19601f8201168201806040525081019061030391906105c6565b5060019050919050565b6000600254905090565b60008060009054906101000a900473ffffffffffffffffffffffffffffffffffffffff1673ffffffffffffffffffffffffffffffffffffffff166370a08231306040518263ffffffff1660e01b81526004016103739190610685565b60206040518083038186803b15801561038b57600080fd5b505afa15801561039f573d6000803e3d6000fd5b505050506040513d601f19601f820116820180604052508101906103c391906105c6565b905090565b60008060009054906101000a900473ffffffffffffffffffffffffffffffffffffffff1673ffffffffffffffffffffffffffffffffffffffff1663dd62ed3e33306040518363ffffffff1660e01b81526004016104269291906106a0565b60206040518083038186803b15801561043e57600080fd5b505afa158015610452573d6000803e3d6000fd5b505050506040513d601f19601f8201168201806040525081019061047691906105c6565b905090565b60008060009054906101000a900473ffffffffffffffffffffffffffffffffffffffff1673ffffffffffffffffffffffffffffffffffffffff1663095ea7b330846040518363ffffffff1660e01b81526004016104d992919061072e565b602060405180830381600087803b1580156104f357600080fd5b505af1158015610507573d6000803e3d6000fd5b505050506040513d601f19601f8201168201806040525081019061052b9190610574565b5060019050919050565b60008151905061054481610913565b92915050565b6000813590506105598161092a565b92915050565b60008151905061056e8161092a565b92915050565b60006020828403121561058657600080fd5b600061059484828501610535565b91505092915050565b6000602082840312156105af57600080fd5b60006105bd8482850161054a565b91505092915050565b6000602082840312156105d857600080fd5b60006105e68482850161055f565b91505092915050565b6105f8816107de565b82525050565b610607816107f0565b82525050565b600061061a6050836107cd565b915061062582610826565b606082019050919050565b600061063d601b836107cd565b91506106488261089b565b602082019050919050565b60006106606029836107cd565b915061066b826108c4565b604082019050919050565b61067f8161081c565b82525050565b600060208201905061069a60008301846105ef565b92915050565b60006040820190506106b560008301856105ef565b6106c260208301846105ef565b9392505050565b60006060820190506106de60008301866105ef565b6106eb60208301856105ef565b6106f86040830184610676565b949350505050565b600060408201905061071560008301846105ef565b81810360208301526107268161060d565b905092915050565b600060408201905061074360008301856105ef565b6107506020830184610676565b9392505050565b600060208201905061076c60008301846105fe565b92915050565b6000602082019050818103600083015261078b81610630565b9050919050565b600060208201905081810360008301526107ab81610653565b9050919050565b60006020820190506107c76000830184610676565b92915050565b600082825260208201905092915050565b60006107e9826107fc565b9050919050565b60008115159050919050565b600073ffffffffffffffffffffffffffffffffffffffff82169050919050565b6000819050919050565b7f68747470733a2f2f676174657761792e70696e6174612e636c6f75642f69706660008201527f732f516d597952577441455131485a466d547559336671517a4c79643965614860208201527f5148625855695432796571573178334200000000000000000000000000000000604082015250565b7f696e636f727265637420707269636520666f722063617073756c650000000000600082015250565b7f506c6561736520617070726f766520746f6b656e73206265666f72652074726160008201527f6e7366657272696e670000000000000000000000000000000000000000000000602082015250565b61091c816107f0565b811461092757600080fd5b50565b6109338161081c565b811461093e57600080fd5b5056fea2646970667358221220a66b5eaed21605095d45aeb1df8b1cb3c4911faf3afeb820f3f58b8f4d6b37db64736f6c63430008010033",
  "linkReferences": {},
  "deployedLinkReferences": {}
}