{
  "_format": "hh-sol-artifact-1",
  "contractName": "Machine",
  "sourceName": "contracts/Machine.sol",
  "abi": [
    {
      "inputs": [
        {
          "components": [
            {
              "internalType": "address",
              "name": "slot0",
              "type": "address"
            },
            {
              "internalType": "address",
              "name": "slot1",
              "type": "address"
            },
            {
              "internalType": "address",
              "name": "slot2",
              "type": "address"
            },
            {
              "internalType": "address",
              "name": "slot3",
              "type": "address"
            },
            {
              "internalType": "address",
              "name": "slot4",
              "type": "address"
            },
            {
              "internalType": "address",
              "name": "slot5",
              "type": "address"
            },
            {
              "internalType": "address",
              "name": "slot6",
              "type": "address"
            },
            {
              "internalType": "address",
              "name": "slot7",
              "type": "address"
            },
            {
              "internalType": "address",
              "name": "slot8",
              "type": "address"
            },
            {
              "internalType": "address",
              "name": "slot9",
              "type": "address"
            }
          ],
          "internalType": "struct MiddleData.SlotStruct",
          "name": "slots1",
          "type": "tuple"
        },
        {
          "components": [
            {
              "internalType": "uint256",
              "name": "odds0",
              "type": "uint256"
            },
            {
              "internalType": "uint256",
              "name": "odds1",
              "type": "uint256"
            },
            {
              "internalType": "uint256",
              "name": "odds2",
              "type": "uint256"
            },
            {
              "internalType": "uint256",
              "name": "odds3",
              "type": "uint256"
            },
            {
              "internalType": "uint256",
              "name": "odds4",
              "type": "uint256"
            },
            {
              "internalType": "uint256",
              "name": "odds5",
              "type": "uint256"
            },
            {
              "internalType": "uint256",
              "name": "odds6",
              "type": "uint256"
            },
            {
              "internalType": "uint256",
              "name": "odds7",
              "type": "uint256"
            },
            {
              "internalType": "uint256",
              "name": "odds8",
              "type": "uint256"
            },
            {
              "internalType": "uint256",
              "name": "odds9",
              "type": "uint256"
            }
          ],
          "internalType": "struct MiddleData.OddsStruct",
          "name": "odds1",
          "type": "tuple"
        }
      ],
      "stateMutability": "nonpayable",
      "type": "constructor"
    },
    {
      "anonymous": false,
      "inputs": [
        {
          "indexed": true,
          "internalType": "address",
          "name": "owner",
          "type": "address"
        },
        {
          "indexed": true,
          "internalType": "address",
          "name": "approved",
          "type": "address"
        },
        {
          "indexed": true,
          "internalType": "uint256",
          "name": "tokenId",
          "type": "uint256"
        }
      ],
      "name": "Approval",
      "type": "event"
    },
    {
      "anonymous": false,
      "inputs": [
        {
          "indexed": true,
          "internalType": "address",
          "name": "owner",
          "type": "address"
        },
        {
          "indexed": true,
          "internalType": "address",
          "name": "operator",
          "type": "address"
        },
        {
          "indexed": false,
          "internalType": "bool",
          "name": "approved",
          "type": "bool"
        }
      ],
      "name": "ApprovalForAll",
      "type": "event"
    },
    {
      "anonymous": false,
      "inputs": [
        {
          "indexed": false,
          "internalType": "bytes32",
          "name": "requestId",
          "type": "bytes32"
        },
        {
          "indexed": false,
          "internalType": "uint256",
          "name": "randomNumberInt",
          "type": "uint256"
        },
        {
          "indexed": false,
          "internalType": "uint256",
          "name": "nftTokenId",
          "type": "uint256"
        },
        {
          "indexed": false,
          "internalType": "uint256",
          "name": "slotWinner",
          "type": "uint256"
        }
      ],
      "name": "NewRandomItem",
      "type": "event"
    },
    {
      "anonymous": false,
      "inputs": [
        {
          "indexed": false,
          "internalType": "bytes32",
          "name": "requestId",
          "type": "bytes32"
        }
      ],
      "name": "RequestNewRandomNumber",
      "type": "event"
    },
    {
      "anonymous": false,
      "inputs": [
        {
          "indexed": true,
          "internalType": "address",
          "name": "from",
          "type": "address"
        },
        {
          "indexed": true,
          "internalType": "address",
          "name": "to",
          "type": "address"
        },
        {
          "indexed": true,
          "internalType": "uint256",
          "name": "tokenId",
          "type": "uint256"
        }
      ],
      "name": "Transfer",
      "type": "event"
    },
    {
      "inputs": [
        {
          "internalType": "uint256[]",
          "name": "theList",
          "type": "uint256[]"
        },
        {
          "internalType": "address",
          "name": "nftContractAddress",
          "type": "address"
        },
        {
          "internalType": "uint256",
          "name": "buyItNowNativePrice",
          "type": "uint256"
        }
      ],
      "name": "RegisterListOfNftIds",
      "outputs": [],
      "stateMutability": "nonpayable",
      "type": "function"
    },
    {
      "inputs": [
        {
          "internalType": "address",
          "name": "to",
          "type": "address"
        },
        {
          "internalType": "uint256",
          "name": "tokenId",
          "type": "uint256"
        }
      ],
      "name": "approve",
      "outputs": [],
      "stateMutability": "nonpayable",
      "type": "function"
    },
    {
      "inputs": [
        {
          "internalType": "address",
          "name": "owner",
          "type": "address"
        }
      ],
      "name": "balanceOf",
      "outputs": [
        {
          "internalType": "uint256",
          "name": "",
          "type": "uint256"
        }
      ],
      "stateMutability": "view",
      "type": "function"
    },
    {
      "inputs": [],
      "name": "getAllAddys",
      "outputs": [
        {
          "components": [
            {
              "internalType": "address",
              "name": "slot0",
              "type": "address"
            },
            {
              "internalType": "address",
              "name": "slot1",
              "type": "address"
            },
            {
              "internalType": "address",
              "name": "slot2",
              "type": "address"
            },
            {
              "internalType": "address",
              "name": "slot3",
              "type": "address"
            },
            {
              "internalType": "address",
              "name": "slot4",
              "type": "address"
            },
            {
              "internalType": "address",
              "name": "slot5",
              "type": "address"
            },
            {
              "internalType": "address",
              "name": "slot6",
              "type": "address"
            },
            {
              "internalType": "address",
              "name": "slot7",
              "type": "address"
            },
            {
              "internalType": "address",
              "name": "slot8",
              "type": "address"
            },
            {
              "internalType": "address",
              "name": "slot9",
              "type": "address"
            }
          ],
          "internalType": "struct MiddleData.SlotStruct",
          "name": "",
          "type": "tuple"
        }
      ],
      "stateMutability": "view",
      "type": "function"
    },
    {
      "inputs": [],
      "name": "getAllOdds",
      "outputs": [
        {
          "components": [
            {
              "internalType": "uint256",
              "name": "odds0",
              "type": "uint256"
            },
            {
              "internalType": "uint256",
              "name": "odds1",
              "type": "uint256"
            },
            {
              "internalType": "uint256",
              "name": "odds2",
              "type": "uint256"
            },
            {
              "internalType": "uint256",
              "name": "odds3",
              "type": "uint256"
            },
            {
              "internalType": "uint256",
              "name": "odds4",
              "type": "uint256"
            },
            {
              "internalType": "uint256",
              "name": "odds5",
              "type": "uint256"
            },
            {
              "internalType": "uint256",
              "name": "odds6",
              "type": "uint256"
            },
            {
              "internalType": "uint256",
              "name": "odds7",
              "type": "uint256"
            },
            {
              "internalType": "uint256",
              "name": "odds8",
              "type": "uint256"
            },
            {
              "internalType": "uint256",
              "name": "odds9",
              "type": "uint256"
            }
          ],
          "internalType": "struct MiddleData.OddsStruct",
          "name": "",
          "type": "tuple"
        }
      ],
      "stateMutability": "view",
      "type": "function"
    },
    {
      "inputs": [
        {
          "internalType": "uint256",
          "name": "slotIndex",
          "type": "uint256"
        }
      ],
      "name": "getAllRegisteredForSlot",
      "outputs": [
        {
          "components": [
            {
              "internalType": "uint256",
              "name": "tokenId",
              "type": "uint256"
            },
            {
              "internalType": "uint256",
              "name": "index",
              "type": "uint256"
            }
          ],
          "internalType": "struct Machine.slotInhabitant[]",
          "name": "",
          "type": "tuple[]"
        },
        {
          "internalType": "string[]",
          "name": "",
          "type": "string[]"
        },
        {
          "internalType": "string",
          "name": "",
          "type": "string"
        },
        {
          "internalType": "string",
          "name": "",
          "type": "string"
        },
        {
          "internalType": "address",
          "name": "",
          "type": "address"
        }
      ],
      "stateMutability": "view",
      "type": "function"
    },
    {
      "inputs": [
        {
          "internalType": "uint256",
          "name": "tokenId",
          "type": "uint256"
        }
      ],
      "name": "getApproved",
      "outputs": [
        {
          "internalType": "address",
          "name": "",
          "type": "address"
        }
      ],
      "stateMutability": "view",
      "type": "function"
    },
    {
      "inputs": [
        {
          "internalType": "address",
          "name": "owner",
          "type": "address"
        },
        {
          "internalType": "address",
          "name": "operator",
          "type": "address"
        }
      ],
      "name": "isApprovedForAll",
      "outputs": [
        {
          "internalType": "bool",
          "name": "",
          "type": "bool"
        }
      ],
      "stateMutability": "view",
      "type": "function"
    },
    {
      "inputs": [
        {
          "internalType": "address",
          "name": "player",
          "type": "address"
        },
        {
          "internalType": "string",
          "name": "tokenURI",
          "type": "string"
        }
      ],
      "name": "mintChest",
      "outputs": [
        {
          "internalType": "uint256",
          "name": "",
          "type": "uint256"
        }
      ],
      "stateMutability": "nonpayable",
      "type": "function"
    },
    {
      "inputs": [],
      "name": "name",
      "outputs": [
        {
          "internalType": "string",
          "name": "",
          "type": "string"
        }
      ],
      "stateMutability": "view",
      "type": "function"
    },
    {
      "inputs": [
        {
          "internalType": "uint256",
          "name": "chestId",
          "type": "uint256"
        }
      ],
      "name": "openChest",
      "outputs": [
        {
          "internalType": "bytes32",
          "name": "",
          "type": "bytes32"
        }
      ],
      "stateMutability": "nonpayable",
      "type": "function"
    },
    {
      "inputs": [
        {
          "internalType": "bytes32",
          "name": "",
          "type": "bytes32"
        }
      ],
      "name": "openChestCaller",
      "outputs": [
        {
          "internalType": "address",
          "name": "",
          "type": "address"
        }
      ],
      "stateMutability": "view",
      "type": "function"
    },
    {
      "inputs": [
        {
          "internalType": "bytes32",
          "name": "",
          "type": "bytes32"
        }
      ],
      "name": "openChestStatus",
      "outputs": [
        {
          "internalType": "uint256",
          "name": "",
          "type": "uint256"
        }
      ],
      "stateMutability": "view",
      "type": "function"
    },
    {
      "inputs": [
        {
          "internalType": "uint256",
          "name": "tokenId",
          "type": "uint256"
        }
      ],
      "name": "ownerOf",
      "outputs": [
        {
          "internalType": "address",
          "name": "",
          "type": "address"
        }
      ],
      "stateMutability": "view",
      "type": "function"
    },
    {
      "inputs": [
        {
          "internalType": "address",
          "name": "",
          "type": "address"
        },
        {
          "internalType": "uint256",
          "name": "",
          "type": "uint256"
        }
      ],
      "name": "q",
      "outputs": [
        {
          "internalType": "uint256",
          "name": "tokenId",
          "type": "uint256"
        },
        {
          "internalType": "uint256",
          "name": "index",
          "type": "uint256"
        }
      ],
      "stateMutability": "view",
      "type": "function"
    },
    {
      "inputs": [
        {
          "internalType": "bytes32",
          "name": "requestId",
          "type": "bytes32"
        },
        {
          "internalType": "uint256",
          "name": "randomness",
          "type": "uint256"
        }
      ],
      "name": "rawFulfillRandomness",
      "outputs": [],
      "stateMutability": "nonpayable",
      "type": "function"
    },
    {
      "inputs": [
        {
          "internalType": "uint256",
          "name": "",
          "type": "uint256"
        }
      ],
      "name": "requestStatusIdByNftId",
      "outputs": [
        {
          "internalType": "bytes32",
          "name": "",
          "type": "bytes32"
        }
      ],
      "stateMutability": "view",
      "type": "function"
    },
    {
      "inputs": [
        {
          "internalType": "address",
          "name": "from",
          "type": "address"
        },
        {
          "internalType": "address",
          "name": "to",
          "type": "address"
        },
        {
          "internalType": "uint256",
          "name": "tokenId",
          "type": "uint256"
        }
      ],
      "name": "safeTransferFrom",
      "outputs": [],
      "stateMutability": "nonpayable",
      "type": "function"
    },
    {
      "inputs": [
        {
          "internalType": "address",
          "name": "from",
          "type": "address"
        },
        {
          "internalType": "address",
          "name": "to",
          "type": "address"
        },
        {
          "internalType": "uint256",
          "name": "tokenId",
          "type": "uint256"
        },
        {
          "internalType": "bytes",
          "name": "_data",
          "type": "bytes"
        }
      ],
      "name": "safeTransferFrom",
      "outputs": [],
      "stateMutability": "nonpayable",
      "type": "function"
    },
    {
      "inputs": [
        {
          "internalType": "address",
          "name": "operator",
          "type": "address"
        },
        {
          "internalType": "bool",
          "name": "approved",
          "type": "bool"
        }
      ],
      "name": "setApprovalForAll",
      "outputs": [],
      "stateMutability": "nonpayable",
      "type": "function"
    },
    {
      "inputs": [
        {
          "internalType": "bytes4",
          "name": "interfaceId",
          "type": "bytes4"
        }
      ],
      "name": "supportsInterface",
      "outputs": [
        {
          "internalType": "bool",
          "name": "",
          "type": "bool"
        }
      ],
      "stateMutability": "view",
      "type": "function"
    },
    {
      "inputs": [],
      "name": "symbol",
      "outputs": [
        {
          "internalType": "string",
          "name": "",
          "type": "string"
        }
      ],
      "stateMutability": "view",
      "type": "function"
    },
    {
      "inputs": [
        {
          "internalType": "uint256",
          "name": "tokenId",
          "type": "uint256"
        }
      ],
      "name": "tokenURI",
      "outputs": [
        {
          "internalType": "string",
          "name": "",
          "type": "string"
        }
      ],
      "stateMutability": "view",
      "type": "function"
    },
    {
      "inputs": [
        {
          "internalType": "address",
          "name": "from",
          "type": "address"
        },
        {
          "internalType": "address",
          "name": "to",
          "type": "address"
        },
        {
          "internalType": "uint256",
          "name": "tokenId",
          "type": "uint256"
        }
      ],
      "name": "transferFrom",
      "outputs": [],
      "stateMutability": "nonpayable",
      "type": "function"
    }
  ],
  "bytecode": "0x60c06040523480156200001157600080fd5b5060405162006dab38038062006dab833981810160405281019062000037919062000f39565b73b3dccb4cf7a26f6cf6b120cf5a73875b7bbc655b7301be23585060835e02b77ef475b0cc51aa1e07096040518060400160405280600781526020017f43617073756c65000000000000000000000000000000000000000000000000008152506040518060400160405280600781526020017f43415053554c45000000000000000000000000000000000000000000000000008152508160009080519060200190620000e592919062000c49565b508060019080519060200190620000fe92919062000c49565b5050508173ffffffffffffffffffffffffffffffffffffffff1660a08173ffffffffffffffffffffffffffffffffffffffff1660601b815250508073ffffffffffffffffffffffffffffffffffffffff1660808173ffffffffffffffffffffffffffffffffffffffff1660601b81525050505033601160006101000a81548173ffffffffffffffffffffffffffffffffffffffff021916908373ffffffffffffffffffffffffffffffffffffffff1602179055507f2ed0feb3e7fd2022120aa84fab1945545a9f2ffc9076fd6156fa96eaff4c131160001b6009819055506703782dace9d90000600a8190555081601260008201518160000160006101000a81548173ffffffffffffffffffffffffffffffffffffffff021916908373ffffffffffffffffffffffffffffffffffffffff16021790555060208201518160010160006101000a81548173ffffffffffffffffffffffffffffffffffffffff021916908373ffffffffffffffffffffffffffffffffffffffff16021790555060408201518160020160006101000a81548173ffffffffffffffffffffffffffffffffffffffff021916908373ffffffffffffffffffffffffffffffffffffffff16021790555060608201518160030160006101000a81548173ffffffffffffffffffffffffffffffffffffffff021916908373ffffffffffffffffffffffffffffffffffffffff16021790555060808201518160040160006101000a81548173ffffffffffffffffffffffffffffffffffffffff021916908373ffffffffffffffffffffffffffffffffffffffff16021790555060a08201518160050160006101000a81548173ffffffffffffffffffffffffffffffffffffffff021916908373ffffffffffffffffffffffffffffffffffffffff16021790555060c08201518160060160006101000a81548173ffffffffffffffffffffffffffffffffffffffff021916908373ffffffffffffffffffffffffffffffffffffffff16021790555060e08201518160070160006101000a81548173ffffffffffffffffffffffffffffffffffffffff021916908373ffffffffffffffffffffffffffffffffffffffff1602179055506101008201518160080160006101000a81548173ffffffffffffffffffffffffffffffffffffffff021916908373ffffffffffffffffffffffffffffffffffffffff1602179055506101208201518160090160006101000a81548173ffffffffffffffffffffffffffffffffffffffff021916908373ffffffffffffffffffffffffffffffffffffffff16021790555090505080601c600082015181600001556020820151816001015560408201518160020155606082015181600301556080820151816004015560a0820151816005015560c0820151816006015560e08201518160070155610100820151816008015561012082015181600901559050506010601260000160009054906101000a900473ffffffffffffffffffffffffffffffffffffffff169080600181540180825580915050600190039060005260206000200160009091909190916101000a81548173ffffffffffffffffffffffffffffffffffffffff021916908373ffffffffffffffffffffffffffffffffffffffff1602179055506010601260010160009054906101000a900473ffffffffffffffffffffffffffffffffffffffff169080600181540180825580915050600190039060005260206000200160009091909190916101000a81548173ffffffffffffffffffffffffffffffffffffffff021916908373ffffffffffffffffffffffffffffffffffffffff1602179055506010601260020160009054906101000a900473ffffffffffffffffffffffffffffffffffffffff169080600181540180825580915050600190039060005260206000200160009091909190916101000a81548173ffffffffffffffffffffffffffffffffffffffff021916908373ffffffffffffffffffffffffffffffffffffffff1602179055506010601260030160009054906101000a900473ffffffffffffffffffffffffffffffffffffffff169080600181540180825580915050600190039060005260206000200160009091909190916101000a81548173ffffffffffffffffffffffffffffffffffffffff021916908373ffffffffffffffffffffffffffffffffffffffff1602179055506010601260040160009054906101000a900473ffffffffffffffffffffffffffffffffffffffff169080600181540180825580915050600190039060005260206000200160009091909190916101000a81548173ffffffffffffffffffffffffffffffffffffffff021916908373ffffffffffffffffffffffffffffffffffffffff1602179055506010601260050160009054906101000a900473ffffffffffffffffffffffffffffffffffffffff169080600181540180825580915050600190039060005260206000200160009091909190916101000a81548173ffffffffffffffffffffffffffffffffffffffff021916908373ffffffffffffffffffffffffffffffffffffffff1602179055506010601260060160009054906101000a900473ffffffffffffffffffffffffffffffffffffffff169080600181540180825580915050600190039060005260206000200160009091909190916101000a81548173ffffffffffffffffffffffffffffffffffffffff021916908373ffffffffffffffffffffffffffffffffffffffff1602179055506010601260070160009054906101000a900473ffffffffffffffffffffffffffffffffffffffff169080600181540180825580915050600190039060005260206000200160009091909190916101000a81548173ffffffffffffffffffffffffffffffffffffffff021916908373ffffffffffffffffffffffffffffffffffffffff1602179055506010601260080160009054906101000a900473ffffffffffffffffffffffffffffffffffffffff169080600181540180825580915050600190039060005260206000200160009091909190916101000a81548173ffffffffffffffffffffffffffffffffffffffff021916908373ffffffffffffffffffffffffffffffffffffffff1602179055506010601260090160009054906101000a900473ffffffffffffffffffffffffffffffffffffffff169080600181540180825580915050600190039060005260206000200160009091909190916101000a81548173ffffffffffffffffffffffffffffffffffffffff021916908373ffffffffffffffffffffffffffffffffffffffff160217905550600f601c600001549080600181540180825580915050600190039060005260206000200160009091909190915055600f601c600101549080600181540180825580915050600190039060005260206000200160009091909190915055600f601c600201549080600181540180825580915050600190039060005260206000200160009091909190915055600f601c600301549080600181540180825580915050600190039060005260206000200160009091909190915055600f601c600401549080600181540180825580915050600190039060005260206000200160009091909190915055600f601c600501549080600181540180825580915050600190039060005260206000200160009091909190915055600f601c600601549080600181540180825580915050600190039060005260206000200160009091909190915055600f601c600701549080600181540180825580915050600190039060005260206000200160009091909190915055600f601c600801549080600181540180825580915050600190039060005260206000200160009091909190915055600f601c6009015490806001815401808255809150506001900390600052602060002001600090919091909150555050620010f2565b82805462000c579062000fe3565b90600052602060002090601f01602090048101928262000c7b576000855562000cc7565b82601f1062000c9657805160ff191683800117855562000cc7565b8280016001018555821562000cc7579182015b8281111562000cc657825182559160200191906001019062000ca9565b5b50905062000cd6919062000cda565b5090565b5b8082111562000cf557600081600090555060010162000cdb565b5090565b60008151905062000d0a81620010be565b92915050565b6000610140828403121562000d2457600080fd5b62000d3161014062000f7c565b9050600062000d438482850162000f22565b600083015250602062000d598482850162000f22565b602083015250604062000d6f8482850162000f22565b604083015250606062000d858482850162000f22565b606083015250608062000d9b8482850162000f22565b60808301525060a062000db18482850162000f22565b60a08301525060c062000dc78482850162000f22565b60c08301525060e062000ddd8482850162000f22565b60e08301525061010062000df48482850162000f22565b6101008301525061012062000e0c8482850162000f22565b6101208301525092915050565b6000610140828403121562000e2d57600080fd5b62000e3a61014062000f7c565b9050600062000e4c8482850162000cf9565b600083015250602062000e628482850162000cf9565b602083015250604062000e788482850162000cf9565b604083015250606062000e8e8482850162000cf9565b606083015250608062000ea48482850162000cf9565b60808301525060a062000eba8482850162000cf9565b60a08301525060c062000ed08482850162000cf9565b60c08301525060e062000ee68482850162000cf9565b60e08301525061010062000efd8482850162000cf9565b6101008301525061012062000f158482850162000cf9565b6101208301525092915050565b60008151905062000f3381620010d8565b92915050565b600080610280838503121562000f4e57600080fd5b600062000f5e8582860162000e19565b92505061014062000f728582860162000d10565b9150509250929050565b600062000f8862000f9b565b905062000f96828262001019565b919050565b6000604051905090565b600062000fb28262000fb9565b9050919050565b600073ffffffffffffffffffffffffffffffffffffffff82169050919050565b6000819050919050565b6000600282049050600182168062000ffc57607f821691505b602082108114156200101357620010126200104f565b5b50919050565b6200102482620010ad565b810181811067ffffffffffffffff821117156200104657620010456200107e565b5b80604052505050565b7f4e487b7100000000000000000000000000000000000000000000000000000000600052602260045260246000fd5b7f4e487b7100000000000000000000000000000000000000000000000000000000600052604160045260246000fd5b6000601f19601f8301169050919050565b620010c98162000fa5565b8114620010d557600080fd5b50565b620010e38162000fd9565b8114620010ef57600080fd5b50565b60805160601c60a05160601c615c7f6200112c60003960008181611644015261255201526000818161131c01526125160152615c7f6000f3fe608060405234801561001057600080fd5b50600436106101585760003560e01c806394985ddd116100c3578063c87b56dd1161007c578063c87b56dd14610400578063d1b9bfad14610430578063e002191314610460578063e985e9c514610490578063ec21c4cf146104c0578063eeebba29146104f057610158565b806394985ddd1461034157806395d89b411461035d578063a22cb4651461037b578063aaeb4c0614610397578063b88d4fde146103c8578063c06d96bc146103e457610158565b80634085166111610115578063408516611461024757806342842e0e146102775780635cde065c146102935780636075eb7d146102b15780636352211e146102e157806370a082311461031157610158565b806301ffc9a71461015d57806306fdde031461018d578063081812fc146101ab578063095ea7b3146101db5780630d2d18e4146101f757806323b872dd1461022b575b600080fd5b610177600480360381019061017291906143d9565b61050e565b6040516101849190614d62565b60405180910390f35b6101956105f0565b6040516101a29190614e4b565b60405180910390f35b6101c560048036038101906101c0919061446c565b610682565b6040516101d29190614c17565b60405180910390f35b6101f560048036038101906101f091906142a8565b610707565b005b610211600480360381019061020c919061446c565b61081f565b604051610222959493929190614cf3565b60405180910390f35b6102456004803603810190610240919061414e565b610e38565b005b610261600480360381019061025c919061446c565b610e98565b60405161026e9190614d7d565b60405180910390f35b610291600480360381019061028c919061414e565b610eb0565b005b61029b610ed0565b6040516102a89190615129565b60405180910390f35b6102cb60048036038101906102c6919061446c565b611247565b6040516102d89190614d7d565b60405180910390f35b6102fb60048036038101906102f6919061446c565b6114d8565b6040516103089190614c17565b60405180910390f35b61032b600480360381019061032691906140c0565b61158a565b6040516103389190615145565b60405180910390f35b61035b6004803603810190610356919061439d565b611642565b005b6103656116de565b6040516103729190614e4b565b60405180910390f35b61039560048036038101906103909190614218565b611770565b005b6103b160048036038101906103ac91906142a8565b611786565b6040516103bf929190615160565b60405180910390f35b6103e260048036038101906103dd919061419d565b6117c7565b005b6103fe60048036038101906103f991906142e4565b611829565b005b61041a6004803603810190610415919061446c565b611d4e565b6040516104279190614e4b565b60405180910390f35b61044a60048036038101906104459190614374565b611ea0565b6040516104579190614c17565b60405180910390f35b61047a60048036038101906104759190614254565b611ed3565b6040516104879190615145565b60405180910390f35b6104aa60048036038101906104a59190614112565b611f0b565b6040516104b79190614d62565b60405180910390f35b6104da60048036038101906104d59190614374565b611f9f565b6040516104e79190615145565b60405180910390f35b6104f8611fb7565b604051610505919061510d565b60405180910390f35b60007f80ac58cd000000000000000000000000000000000000000000000000000000007bffffffffffffffffffffffffffffffffffffffffffffffffffffffff1916827bffffffffffffffffffffffffffffffffffffffffffffffffffffffff191614806105d957507f5b5e139f000000000000000000000000000000000000000000000000000000007bffffffffffffffffffffffffffffffffffffffffffffffffffffffff1916827bffffffffffffffffffffffffffffffffffffffffffffffffffffffff1916145b806105e957506105e882612036565b5b9050919050565b6060600080546105ff906154a7565b80601f016020809104026020016040519081016040528092919081815260200182805461062b906154a7565b80156106785780601f1061064d57610100808354040283529160200191610678565b820191906000526020600020905b81548152906001019060200180831161065b57829003601f168201915b5050505050905090565b600061068d826120a0565b6106cc576040517f08c379a00000000000000000000000000000000000000000000000000000000081526004016106c39061500d565b60405180910390fd5b6004600083815260200190815260200160002060009054906101000a900473ffffffffffffffffffffffffffffffffffffffff169050919050565b6000610712826114d8565b90508073ffffffffffffffffffffffffffffffffffffffff168373ffffffffffffffffffffffffffffffffffffffff161415610783576040517f08c379a000000000000000000000000000000000000000000000000000000000815260040161077a9061508d565b60405180910390fd5b8073ffffffffffffffffffffffffffffffffffffffff166107a261210c565b73ffffffffffffffffffffffffffffffffffffffff1614806107d157506107d0816107cb61210c565b611f0b565b5b610810576040517f08c379a000000000000000000000000000000000000000000000000000000000815260040161080790614f4d565b60405180910390fd5b61081a8383612114565b505050565b60608060608060008060108781548110610862577f4e487b7100000000000000000000000000000000000000000000000000000000600052603260045260246000fd5b9060005260206000200160009054906101000a900473ffffffffffffffffffffffffffffffffffffffff1690506000600e60008373ffffffffffffffffffffffffffffffffffffffff1673ffffffffffffffffffffffffffffffffffffffff1681526020019081526020016000208054905067ffffffffffffffff811115610913577f4e487b7100000000000000000000000000000000000000000000000000000000600052604160045260246000fd5b60405190808252806020026020018201604052801561094657816020015b60608152602001906001900390816109315790505b509050600082905060005b600e60008573ffffffffffffffffffffffffffffffffffffffff1673ffffffffffffffffffffffffffffffffffffffff16815260200190815260200160002080549050811015610b99576000600e60008673ffffffffffffffffffffffffffffffffffffffff1673ffffffffffffffffffffffffffffffffffffffff1681526020019081526020016000208281548110610a14577f4e487b7100000000000000000000000000000000000000000000000000000000600052603260045260246000fd5b90600052602060002090600202016001015414610b86578173ffffffffffffffffffffffffffffffffffffffff1663c87b56dd600e60008773ffffffffffffffffffffffffffffffffffffffff1673ffffffffffffffffffffffffffffffffffffffff1681526020019081526020016000208381548110610abe577f4e487b7100000000000000000000000000000000000000000000000000000000600052603260045260246000fd5b9060005260206000209060020201600001546040518263ffffffff1660e01b8152600401610aec9190615145565b60006040518083038186803b158015610b0457600080fd5b505afa158015610b18573d6000803e3d6000fd5b505050506040513d6000823e3d601f19601f82011682018060405250810190610b41919061442b565b838281518110610b7a577f4e487b7100000000000000000000000000000000000000000000000000000000600052603260045260246000fd5b60200260200101819052505b8080610b919061550a565b915050610951565b5060008173ffffffffffffffffffffffffffffffffffffffff166306fdde036040518163ffffffff1660e01b815260040160006040518083038186803b158015610be257600080fd5b505afa158015610bf6573d6000803e3d6000fd5b505050506040513d6000823e3d601f19601f82011682018060405250810190610c1f919061442b565b905060008273ffffffffffffffffffffffffffffffffffffffff166395d89b416040518163ffffffff1660e01b815260040160006040518083038186803b158015610c6957600080fd5b505afa158015610c7d573d6000803e3d6000fd5b505050506040513d6000823e3d601f19601f82011682018060405250810190610ca6919061442b565b9050600e600060108d81548110610ce6577f4e487b7100000000000000000000000000000000000000000000000000000000600052603260045260246000fd5b9060005260206000200160009054906101000a900473ffffffffffffffffffffffffffffffffffffffff1673ffffffffffffffffffffffffffffffffffffffff1673ffffffffffffffffffffffffffffffffffffffff16815260200190815260200160002084838360108f81548110610d88577f4e487b7100000000000000000000000000000000000000000000000000000000600052603260045260246000fd5b9060005260206000200160009054906101000a900473ffffffffffffffffffffffffffffffffffffffff1684805480602002602001604051908101604052809291908181526020016000905b82821015610e1a57838290600052602060002090600202016040518060400160405290816000820154815260200160018201548152505081526020019060010190610dd4565b50505050945099509950995099509950505050505091939590929450565b610e49610e4361210c565b826121cd565b610e88576040517f08c379a0000000000000000000000000000000000000000000000000000000008152600401610e7f906150ad565b60405180910390fd5b610e938383836122ab565b505050565b600d6020528060005260406000206000915090505481565b610ecb838383604051806020016040528060008152506117c7565b505050565b610ed8613bb6565b6012604051806101400160405290816000820160009054906101000a900473ffffffffffffffffffffffffffffffffffffffff1673ffffffffffffffffffffffffffffffffffffffff1673ffffffffffffffffffffffffffffffffffffffff1681526020016001820160009054906101000a900473ffffffffffffffffffffffffffffffffffffffff1673ffffffffffffffffffffffffffffffffffffffff1673ffffffffffffffffffffffffffffffffffffffff1681526020016002820160009054906101000a900473ffffffffffffffffffffffffffffffffffffffff1673ffffffffffffffffffffffffffffffffffffffff1673ffffffffffffffffffffffffffffffffffffffff1681526020016003820160009054906101000a900473ffffffffffffffffffffffffffffffffffffffff1673ffffffffffffffffffffffffffffffffffffffff1673ffffffffffffffffffffffffffffffffffffffff1681526020016004820160009054906101000a900473ffffffffffffffffffffffffffffffffffffffff1673ffffffffffffffffffffffffffffffffffffffff1673ffffffffffffffffffffffffffffffffffffffff1681526020016005820160009054906101000a900473ffffffffffffffffffffffffffffffffffffffff1673ffffffffffffffffffffffffffffffffffffffff1673ffffffffffffffffffffffffffffffffffffffff1681526020016006820160009054906101000a900473ffffffffffffffffffffffffffffffffffffffff1673ffffffffffffffffffffffffffffffffffffffff1673ffffffffffffffffffffffffffffffffffffffff1681526020016007820160009054906101000a900473ffffffffffffffffffffffffffffffffffffffff1673ffffffffffffffffffffffffffffffffffffffff1673ffffffffffffffffffffffffffffffffffffffff1681526020016008820160009054906101000a900473ffffffffffffffffffffffffffffffffffffffff1673ffffffffffffffffffffffffffffffffffffffff1673ffffffffffffffffffffffffffffffffffffffff1681526020016009820160009054906101000a900473ffffffffffffffffffffffffffffffffffffffff1673ffffffffffffffffffffffffffffffffffffffff1673ffffffffffffffffffffffffffffffffffffffff1681525050905090565b60003373ffffffffffffffffffffffffffffffffffffffff16611269836114d8565b73ffffffffffffffffffffffffffffffffffffffff16146112bf576040517f08c379a00000000000000000000000000000000000000000000000000000000081526004016112b6906150cd565b60405180910390fd5b6000801b600d60008481526020019081526020016000205414611317576040517f08c379a000000000000000000000000000000000000000000000000000000000815260040161130e906150ed565b60405180910390fd5b600a547f000000000000000000000000000000000000000000000000000000000000000073ffffffffffffffffffffffffffffffffffffffff166370a08231306040518263ffffffff1660e01b81526004016113739190614c17565b60206040518083038186803b15801561138b57600080fd5b505afa15801561139f573d6000803e3d6000fd5b505050506040513d601f19601f820116820180604052508101906113c39190614495565b1015611404576040517f08c379a00000000000000000000000000000000000000000000000000000000081526004016113fb90614f0d565b60405180910390fd5b6000611414600954600a54612512565b90507f3ddf36c1f89407183421fa359dbe0734f63030e48dbcfe80a6233311c8487f57816040516114459190614d7d565b60405180910390a133600b600083815260200190815260200160002060006101000a81548173ffffffffffffffffffffffffffffffffffffffff021916908373ffffffffffffffffffffffffffffffffffffffff16021790555082600c60008381526020019081526020016000208190555080600d60008581526020019081526020016000208190555080915050919050565b6000806002600084815260200190815260200160002060009054906101000a900473ffffffffffffffffffffffffffffffffffffffff169050600073ffffffffffffffffffffffffffffffffffffffff168173ffffffffffffffffffffffffffffffffffffffff161415611581576040517f08c379a000000000000000000000000000000000000000000000000000000000815260040161157890614f8d565b60405180910390fd5b80915050919050565b60008073ffffffffffffffffffffffffffffffffffffffff168273ffffffffffffffffffffffffffffffffffffffff1614156115fb576040517f08c379a00000000000000000000000000000000000000000000000000000000081526004016115f290614f6d565b60405180910390fd5b600360008373ffffffffffffffffffffffffffffffffffffffff1673ffffffffffffffffffffffffffffffffffffffff168152602001908152602001600020549050919050565b7f000000000000000000000000000000000000000000000000000000000000000073ffffffffffffffffffffffffffffffffffffffff163373ffffffffffffffffffffffffffffffffffffffff16146116d0576040517f08c379a00000000000000000000000000000000000000000000000000000000081526004016116c79061506d565b60405180910390fd5b6116da8282612674565b5050565b6060600180546116ed906154a7565b80601f0160208091040260200160405190810160405280929190818152602001828054611719906154a7565b80156117665780601f1061173b57610100808354040283529160200191611766565b820191906000526020600020905b81548152906001019060200180831161174957829003601f168201915b5050505050905090565b61178261177b61210c565b838361316d565b5050565b600e60205281600052604060002081815481106117a257600080fd5b9060005260206000209060020201600091509150508060000154908060010154905082565b6117d86117d261210c565b836121cd565b611817576040517f08c379a000000000000000000000000000000000000000000000000000000000815260040161180e906150ad565b60405180910390fd5b611823848484846132da565b50505050565b60005b8351811015611d4857600083905060008173ffffffffffffffffffffffffffffffffffffffff16636352211e878581518110611891577f4e487b7100000000000000000000000000000000000000000000000000000000600052603260045260246000fd5b60200260200101516040518263ffffffff1660e01b81526004016118b59190615145565b60206040518083038186803b1580156118cd57600080fd5b505afa1580156118e1573d6000803e3d6000fd5b505050506040513d601f19601f8201168201806040525081019061190591906140e9565b90503073ffffffffffffffffffffffffffffffffffffffff168173ffffffffffffffffffffffffffffffffffffffff1614611975576040517f08c379a000000000000000000000000000000000000000000000000000000000815260040161196c9061502d565b60405180910390fd5b60005b601080549050811015611d3257601081815481106119bf577f4e487b7100000000000000000000000000000000000000000000000000000000600052603260045260246000fd5b9060005260206000200160009054906101000a900473ffffffffffffffffffffffffffffffffffffffff1673ffffffffffffffffffffffffffffffffffffffff168673ffffffffffffffffffffffffffffffffffffffff161415611d1f57611a25613ce5565b878581518110611a5e577f4e487b7100000000000000000000000000000000000000000000000000000000600052603260045260246000fd5b60200260200101518160000181815250506000805b600e60008a73ffffffffffffffffffffffffffffffffffffffff1673ffffffffffffffffffffffffffffffffffffffff16815260200190815260200160002080549050811015611b71576000600e60008b73ffffffffffffffffffffffffffffffffffffffff1673ffffffffffffffffffffffffffffffffffffffff1681526020019081526020016000208281548110611b36577f4e487b7100000000000000000000000000000000000000000000000000000000600052603260045260246000fd5b9060005260206000209060020201600101541415611b5e57600182611b5b9190615302565b91505b8080611b699061550a565b915050611a73565b50806001600e600060108781548110611bb3577f4e487b7100000000000000000000000000000000000000000000000000000000600052603260045260246000fd5b9060005260206000200160009054906101000a900473ffffffffffffffffffffffffffffffffffffffff1673ffffffffffffffffffffffffffffffffffffffff1673ffffffffffffffffffffffffffffffffffffffff16815260200190815260200160002080549050611c269190615302565b611c309190615389565b826020018181525050600e600060108581548110611c77577f4e487b7100000000000000000000000000000000000000000000000000000000600052603260045260246000fd5b9060005260206000200160009054906101000a900473ffffffffffffffffffffffffffffffffffffffff1673ffffffffffffffffffffffffffffffffffffffff1673ffffffffffffffffffffffffffffffffffffffff1681526020019081526020016000208290806001815401808255809150506001900390600052602060002090600202016000909190919091506000820151816000015560208201518160010155505050505b8080611d2a9061550a565b915050611978565b5050508080611d409061550a565b91505061182c565b50505050565b6060611d59826120a0565b611d98576040517f08c379a0000000000000000000000000000000000000000000000000000000008152600401611d8f90614fed565b60405180910390fd5b6000600660008481526020019081526020016000208054611db8906154a7565b80601f0160208091040260200160405190810160405280929190818152602001828054611de4906154a7565b8015611e315780601f10611e0657610100808354040283529160200191611e31565b820191906000526020600020905b815481529060010190602001808311611e1457829003601f168201915b505050505090506000611e42613336565b9050600081511415611e58578192505050611e9b565b600082511115611e8d578082604051602001611e75929190614bf3565b60405160208183030381529060405292505050611e9b565b611e968461334d565b925050505b919050565b600b6020528060005260406000206000915054906101000a900473ffffffffffffffffffffffffffffffffffffffff1681565b6000611edf60086133f4565b6000611eeb600861340a565b9050611ef78482613418565b611f0181846135f2565b8091505092915050565b6000600560008473ffffffffffffffffffffffffffffffffffffffff1673ffffffffffffffffffffffffffffffffffffffff16815260200190815260200160002060008373ffffffffffffffffffffffffffffffffffffffff1673ffffffffffffffffffffffffffffffffffffffff16815260200190815260200160002060009054906101000a900460ff16905092915050565b600c6020528060005260406000206000915090505481565b611fbf613cff565b601c60405180610140016040529081600082015481526020016001820154815260200160028201548152602001600382015481526020016004820154815260200160058201548152602001600682015481526020016007820154815260200160088201548152602001600982015481525050905090565b60007f01ffc9a7000000000000000000000000000000000000000000000000000000007bffffffffffffffffffffffffffffffffffffffffffffffffffffffff1916827bffffffffffffffffffffffffffffffffffffffffffffffffffffffff1916149050919050565b60008073ffffffffffffffffffffffffffffffffffffffff166002600084815260200190815260200160002060009054906101000a900473ffffffffffffffffffffffffffffffffffffffff1673ffffffffffffffffffffffffffffffffffffffff1614159050919050565b600033905090565b816004600083815260200190815260200160002060006101000a81548173ffffffffffffffffffffffffffffffffffffffff021916908373ffffffffffffffffffffffffffffffffffffffff160217905550808273ffffffffffffffffffffffffffffffffffffffff16612187836114d8565b73ffffffffffffffffffffffffffffffffffffffff167f8c5be1e5ebec7d5bd14f71427d1e84f3dd0314c0f7b2291e5b200ac8c7c3b92560405160405180910390a45050565b60006121d8826120a0565b612217576040517f08c379a000000000000000000000000000000000000000000000000000000000815260040161220e90614f2d565b60405180910390fd5b6000612222836114d8565b90508073ffffffffffffffffffffffffffffffffffffffff168473ffffffffffffffffffffffffffffffffffffffff16148061229157508373ffffffffffffffffffffffffffffffffffffffff1661227984610682565b73ffffffffffffffffffffffffffffffffffffffff16145b806122a257506122a18185611f0b565b5b91505092915050565b8273ffffffffffffffffffffffffffffffffffffffff166122cb826114d8565b73ffffffffffffffffffffffffffffffffffffffff1614612321576040517f08c379a000000000000000000000000000000000000000000000000000000000815260040161231890614e8d565b60405180910390fd5b600073ffffffffffffffffffffffffffffffffffffffff168273ffffffffffffffffffffffffffffffffffffffff161415612391576040517f08c379a000000000000000000000000000000000000000000000000000000000815260040161238890614ecd565b60405180910390fd5b61239c838383613666565b6123a7600082612114565b6001600360008573ffffffffffffffffffffffffffffffffffffffff1673ffffffffffffffffffffffffffffffffffffffff16815260200190815260200160002060008282546123f79190615389565b925050819055506001600360008473ffffffffffffffffffffffffffffffffffffffff1673ffffffffffffffffffffffffffffffffffffffff168152602001908152602001600020600082825461244e9190615302565b92505081905550816002600083815260200190815260200160002060006101000a81548173ffffffffffffffffffffffffffffffffffffffff021916908373ffffffffffffffffffffffffffffffffffffffff160217905550808273ffffffffffffffffffffffffffffffffffffffff168473ffffffffffffffffffffffffffffffffffffffff167fddf252ad1be2c89b69c2b068fc378daa952ba7f163c4a11628f55a4df523b3ef60405160405180910390a461250d83838361366b565b505050565b60007f000000000000000000000000000000000000000000000000000000000000000073ffffffffffffffffffffffffffffffffffffffff16634000aea07f000000000000000000000000000000000000000000000000000000000000000084866000604051602001612586929190614d98565b6040516020818303038152906040526040518463ffffffff1660e01b81526004016125b393929190614cb5565b602060405180830381600087803b1580156125cd57600080fd5b505af11580156125e1573d6000803e3d6000fd5b505050506040513d601f19601f82011682018060405250810190612605919061434b565b506000612628846000306007600089815260200190815260200160002054613670565b90506001600760008681526020019081526020016000205461264a9190615302565b600760008681526020019081526020016000208190555061266b84826136ac565b91505092915050565b6000620f4240826126859190615567565b905060008080600090505b600f805490508110156127cc576000600f82815481106126d9577f4e487b7100000000000000000000000000000000000000000000000000000000600052603260045260246000fd5b906000526020600020015414156126ef576127b9565b8260006126fc9190615302565b84118015612759575082600f8281548110612740577f4e487b7100000000000000000000000000000000000000000000000000000000600052603260045260246000fd5b90600052602060002001546127559190615302565b8411155b15612766578091506127cc565b600f81815481106127a0577f4e487b7100000000000000000000000000000000000000000000000000000000600052603260045260246000fd5b9060005260206000200154836127b69190615302565b92505b80806127c49061550a565b915050612690565b50600060108281548110612809577f4e487b7100000000000000000000000000000000000000000000000000000000600052603260045260246000fd5b9060005260206000200160009054906101000a900473ffffffffffffffffffffffffffffffffffffffff1690506000600b600088815260200190815260200160002060009054906101000a900473ffffffffffffffffffffffffffffffffffffffff1690506000805b600e6000601087815481106128b0577f4e487b7100000000000000000000000000000000000000000000000000000000600052603260045260246000fd5b9060005260206000200160009054906101000a900473ffffffffffffffffffffffffffffffffffffffff1673ffffffffffffffffffffffffffffffffffffffff1673ffffffffffffffffffffffffffffffffffffffff16815260200190815260200160002080549050811015612a30576001600e600060108881548110612960577f4e487b7100000000000000000000000000000000000000000000000000000000600052603260045260246000fd5b9060005260206000200160009054906101000a900473ffffffffffffffffffffffffffffffffffffffff1673ffffffffffffffffffffffffffffffffffffffff1673ffffffffffffffffffffffffffffffffffffffff16815260200190815260200160002082815481106129fd577f4e487b7100000000000000000000000000000000000000000000000000000000600052603260045260246000fd5b9060005260206000209060020201600101541415612a1d57809150612a30565b8080612a289061550a565b915050612872565b508273ffffffffffffffffffffffffffffffffffffffff166342842e0e3084600e600060108a81548110612a8d577f4e487b7100000000000000000000000000000000000000000000000000000000600052603260045260246000fd5b9060005260206000200160009054906101000a900473ffffffffffffffffffffffffffffffffffffffff1673ffffffffffffffffffffffffffffffffffffffff1673ffffffffffffffffffffffffffffffffffffffff1681526020019081526020016000208581548110612b2a577f4e487b7100000000000000000000000000000000000000000000000000000000600052603260045260246000fd5b9060005260206000209060020201600001546040518463ffffffff1660e01b8152600401612b5a93929190614c32565b600060405180830381600087803b158015612b7457600080fd5b505af1158015612b88573d6000803e3d6000fd5b505050507f5fd3d36ba38644385f9ef4179d4d9c1f074233dc29424c7bb4a3af598719e3118887600e600060108981548110612bed577f4e487b7100000000000000000000000000000000000000000000000000000000600052603260045260246000fd5b9060005260206000200160009054906101000a900473ffffffffffffffffffffffffffffffffffffffff1673ffffffffffffffffffffffffffffffffffffffff1673ffffffffffffffffffffffffffffffffffffffff1681526020019081526020016000208481548110612c8a577f4e487b7100000000000000000000000000000000000000000000000000000000600052603260045260246000fd5b90600052602060002090600202016000015487604051612cad9493929190614e06565b60405180910390a16000600e600060108781548110612cf5577f4e487b7100000000000000000000000000000000000000000000000000000000600052603260045260246000fd5b9060005260206000200160009054906101000a900473ffffffffffffffffffffffffffffffffffffffff1673ffffffffffffffffffffffffffffffffffffffff1673ffffffffffffffffffffffffffffffffffffffff1681526020019081526020016000208281548110612d92577f4e487b7100000000000000000000000000000000000000000000000000000000600052603260045260246000fd5b9060005260206000209060020201600101819055506000600e600060108781548110612de7577f4e487b7100000000000000000000000000000000000000000000000000000000600052603260045260246000fd5b9060005260206000200160009054906101000a900473ffffffffffffffffffffffffffffffffffffffff1673ffffffffffffffffffffffffffffffffffffffff1673ffffffffffffffffffffffffffffffffffffffff1681526020019081526020016000208054905090506000600182612e619190615389565b90505b6000811115612f7e576000600e600060108981548110612ead577f4e487b7100000000000000000000000000000000000000000000000000000000600052603260045260246000fd5b9060005260206000200160009054906101000a900473ffffffffffffffffffffffffffffffffffffffff1673ffffffffffffffffffffffffffffffffffffffff1673ffffffffffffffffffffffffffffffffffffffff1681526020019081526020016000208281548110612f4a577f4e487b7100000000000000000000000000000000000000000000000000000000600052603260045260246000fd5b9060005260206000209060020201600101541415612f6757612f6b565b8091505b8080612f769061547d565b915050612e64565b50600e600060108781548110612fbd577f4e487b7100000000000000000000000000000000000000000000000000000000600052603260045260246000fd5b9060005260206000200160009054906101000a900473ffffffffffffffffffffffffffffffffffffffff1673ffffffffffffffffffffffffffffffffffffffff1673ffffffffffffffffffffffffffffffffffffffff1681526020019081526020016000208054905081141561303257613125565b6001600e600060108881548110613072577f4e487b7100000000000000000000000000000000000000000000000000000000600052603260045260246000fd5b9060005260206000200160009054906101000a900473ffffffffffffffffffffffffffffffffffffffff1673ffffffffffffffffffffffffffffffffffffffff1673ffffffffffffffffffffffffffffffffffffffff168152602001908152602001600020828154811061310f577f4e487b7100000000000000000000000000000000000000000000000000000000600052603260045260246000fd5b9060005260206000209060020201600101819055505b6000600c60008b81526020019081526020016000205490506000801b600d600083815260200190815260200160002081905550613161816136df565b50505050505050505050565b8173ffffffffffffffffffffffffffffffffffffffff168373ffffffffffffffffffffffffffffffffffffffff1614156131dc576040517f08c379a00000000000000000000000000000000000000000000000000000000081526004016131d390614eed565b60405180910390fd5b80600560008573ffffffffffffffffffffffffffffffffffffffff1673ffffffffffffffffffffffffffffffffffffffff16815260200190815260200160002060008473ffffffffffffffffffffffffffffffffffffffff1673ffffffffffffffffffffffffffffffffffffffff16815260200190815260200160002060006101000a81548160ff0219169083151502179055508173ffffffffffffffffffffffffffffffffffffffff168373ffffffffffffffffffffffffffffffffffffffff167f17307eab39ab6107e8899845ad3d59bd9653f200f220920489ca2b5937696c31836040516132cd9190614d62565b60405180910390a3505050565b6132e58484846122ab565b6132f184848484613732565b613330576040517f08c379a000000000000000000000000000000000000000000000000000000000815260040161332790614e6d565b60405180910390fd5b50505050565b606060405180602001604052806000815250905090565b6060613358826120a0565b613397576040517f08c379a000000000000000000000000000000000000000000000000000000000815260040161338e9061504d565b60405180910390fd5b60006133a1613336565b905060008151116133c157604051806020016040528060008152506133ec565b806133cb846138c9565b6040516020016133dc929190614bf3565b6040516020818303038152906040525b915050919050565b6001816000016000828254019250508190555050565b600081600001549050919050565b600073ffffffffffffffffffffffffffffffffffffffff168273ffffffffffffffffffffffffffffffffffffffff161415613488576040517f08c379a000000000000000000000000000000000000000000000000000000000815260040161347f90614fcd565b60405180910390fd5b613491816120a0565b156134d1576040517f08c379a00000000000000000000000000000000000000000000000000000000081526004016134c890614ead565b60405180910390fd5b6134dd60008383613666565b6001600360008473ffffffffffffffffffffffffffffffffffffffff1673ffffffffffffffffffffffffffffffffffffffff168152602001908152602001600020600082825461352d9190615302565b92505081905550816002600083815260200190815260200160002060006101000a81548173ffffffffffffffffffffffffffffffffffffffff021916908373ffffffffffffffffffffffffffffffffffffffff160217905550808273ffffffffffffffffffffffffffffffffffffffff16600073ffffffffffffffffffffffffffffffffffffffff167fddf252ad1be2c89b69c2b068fc378daa952ba7f163c4a11628f55a4df523b3ef60405160405180910390a46135ee6000838361366b565b5050565b6135fb826120a0565b61363a576040517f08c379a000000000000000000000000000000000000000000000000000000000815260040161363190614fad565b60405180910390fd5b80600660008481526020019081526020016000209080519060200190613661929190613d52565b505050565b505050565b505050565b6000848484846040516020016136899493929190614dc1565b6040516020818303038152906040528051906020012060001c9050949350505050565b600082826040516020016136c1929190614bc7565b60405160208183030381529060405280519060200120905092915050565b6136e881613a76565b6000600660008381526020019081526020016000208054613708906154a7565b90501461372f5760066000828152602001908152602001600020600061372e9190613dd8565b5b50565b60006137538473ffffffffffffffffffffffffffffffffffffffff16613b93565b156138bc578373ffffffffffffffffffffffffffffffffffffffff1663150b7a0261377c61210c565b8786866040518563ffffffff1660e01b815260040161379e9493929190614c69565b602060405180830381600087803b1580156137b857600080fd5b505af19250505080156137e957506040513d601f19601f820116820180604052508101906137e69190614402565b60015b61386c573d8060008114613819576040519150601f19603f3d011682016040523d82523d6000602084013e61381e565b606091505b50600081511415613864576040517f08c379a000000000000000000000000000000000000000000000000000000000815260040161385b90614e6d565b60405180910390fd5b805181602001fd5b63150b7a0260e01b7bffffffffffffffffffffffffffffffffffffffffffffffffffffffff1916817bffffffffffffffffffffffffffffffffffffffffffffffffffffffff1916149150506138c1565b600190505b949350505050565b60606000821415613911576040518060400160405280600181526020017f30000000000000000000000000000000000000000000000000000000000000008152509050613a71565b600082905060005b6000821461394357808061392c9061550a565b915050600a8261393c9190615358565b9150613919565b60008167ffffffffffffffff811115613985577f4e487b7100000000000000000000000000000000000000000000000000000000600052604160045260246000fd5b6040519080825280601f01601f1916602001820160405280156139b75781602001600182028036833780820191505090505b5090505b60008514613a6a576001826139d09190615389565b9150600a856139df9190615567565b60306139eb9190615302565b60f81b818381518110613a27577f4e487b7100000000000000000000000000000000000000000000000000000000600052603260045260246000fd5b60200101907effffffffffffffffffffffffffffffffffffffffffffffffffffffffffffff1916908160001a905350600a85613a639190615358565b94506139bb565b8093505050505b919050565b6000613a81826114d8565b9050613a8f81600084613666565b613a9a600083612114565b6001600360008373ffffffffffffffffffffffffffffffffffffffff1673ffffffffffffffffffffffffffffffffffffffff1681526020019081526020016000206000828254613aea9190615389565b925050819055506002600083815260200190815260200160002060006101000a81549073ffffffffffffffffffffffffffffffffffffffff021916905581600073ffffffffffffffffffffffffffffffffffffffff168273ffffffffffffffffffffffffffffffffffffffff167fddf252ad1be2c89b69c2b068fc378daa952ba7f163c4a11628f55a4df523b3ef60405160405180910390a4613b8f8160008461366b565b5050565b6000808273ffffffffffffffffffffffffffffffffffffffff163b119050919050565b604051806101400160405280600073ffffffffffffffffffffffffffffffffffffffff168152602001600073ffffffffffffffffffffffffffffffffffffffff168152602001600073ffffffffffffffffffffffffffffffffffffffff168152602001600073ffffffffffffffffffffffffffffffffffffffff168152602001600073ffffffffffffffffffffffffffffffffffffffff168152602001600073ffffffffffffffffffffffffffffffffffffffff168152602001600073ffffffffffffffffffffffffffffffffffffffff168152602001600073ffffffffffffffffffffffffffffffffffffffff168152602001600073ffffffffffffffffffffffffffffffffffffffff168152602001600073ffffffffffffffffffffffffffffffffffffffff1681525090565b604051806040016040528060008152602001600081525090565b604051806101400160405280600081526020016000815260200160008152602001600081526020016000815260200160008152602001600081526020016000815260200160008152602001600081525090565b828054613d5e906154a7565b90600052602060002090601f016020900481019282613d805760008555613dc7565b82601f10613d9957805160ff1916838001178555613dc7565b82800160010185558215613dc7579182015b82811115613dc6578251825591602001919060010190613dab565b5b509050613dd49190613e18565b5090565b508054613de4906154a7565b6000825580601f10613df65750613e15565b601f016020900490600052602060002090810190613e149190613e18565b5b50565b5b80821115613e31576000816000905550600101613e19565b5090565b6000613e48613e43846151ae565b615189565b90508083825260208201905082856020860282011115613e6757600080fd5b60005b85811015613e975781613e7d8882614096565b845260208401935060208301925050600181019050613e6a565b5050509392505050565b6000613eb4613eaf846151da565b615189565b905082815260208101848484011115613ecc57600080fd5b613ed784828561543b565b509392505050565b6000613ef2613eed8461520b565b615189565b905082815260208101848484011115613f0a57600080fd5b613f1584828561543b565b509392505050565b6000613f30613f2b8461520b565b615189565b905082815260208101848484011115613f4857600080fd5b613f5384828561544a565b509392505050565b600081359050613f6a81615bd6565b92915050565b600081519050613f7f81615bd6565b92915050565b600082601f830112613f9657600080fd5b8135613fa6848260208601613e35565b91505092915050565b600081359050613fbe81615bed565b92915050565b600081519050613fd381615bed565b92915050565b600081359050613fe881615c04565b92915050565b600081359050613ffd81615c1b565b92915050565b60008151905061401281615c1b565b92915050565b600082601f83011261402957600080fd5b8135614039848260208601613ea1565b91505092915050565b600082601f83011261405357600080fd5b8135614063848260208601613edf565b91505092915050565b600082601f83011261407d57600080fd5b815161408d848260208601613f1d565b91505092915050565b6000813590506140a581615c32565b92915050565b6000815190506140ba81615c32565b92915050565b6000602082840312156140d257600080fd5b60006140e084828501613f5b565b91505092915050565b6000602082840312156140fb57600080fd5b600061410984828501613f70565b91505092915050565b6000806040838503121561412557600080fd5b600061413385828601613f5b565b925050602061414485828601613f5b565b9150509250929050565b60008060006060848603121561416357600080fd5b600061417186828701613f5b565b935050602061418286828701613f5b565b925050604061419386828701614096565b9150509250925092565b600080600080608085870312156141b357600080fd5b60006141c187828801613f5b565b94505060206141d287828801613f5b565b93505060406141e387828801614096565b925050606085013567ffffffffffffffff81111561420057600080fd5b61420c87828801614018565b91505092959194509250565b6000806040838503121561422b57600080fd5b600061423985828601613f5b565b925050602061424a85828601613faf565b9150509250929050565b6000806040838503121561426757600080fd5b600061427585828601613f5b565b925050602083013567ffffffffffffffff81111561429257600080fd5b61429e85828601614042565b9150509250929050565b600080604083850312156142bb57600080fd5b60006142c985828601613f5b565b92505060206142da85828601614096565b9150509250929050565b6000806000606084860312156142f957600080fd5b600084013567ffffffffffffffff81111561431357600080fd5b61431f86828701613f85565b935050602061433086828701613f5b565b925050604061434186828701614096565b9150509250925092565b60006020828403121561435d57600080fd5b600061436b84828501613fc4565b91505092915050565b60006020828403121561438657600080fd5b600061439484828501613fd9565b91505092915050565b600080604083850312156143b057600080fd5b60006143be85828601613fd9565b92505060206143cf85828601614096565b9150509250929050565b6000602082840312156143eb57600080fd5b60006143f984828501613fee565b91505092915050565b60006020828403121561441457600080fd5b600061442284828501614003565b91505092915050565b60006020828403121561443d57600080fd5b600082015167ffffffffffffffff81111561445757600080fd5b6144638482850161406c565b91505092915050565b60006020828403121561447e57600080fd5b600061448c84828501614096565b91505092915050565b6000602082840312156144a757600080fd5b60006144b5848285016140ab565b91505092915050565b60006144ca8383614649565b905092915050565b60006144de8383614b63565b60408301905092915050565b6144f3816153bd565b82525050565b614502816153bd565b82525050565b60006145138261525c565b61451d81856152a2565b93508360208202850161452f8561523c565b8060005b8581101561456b578484038952815161454c85826144be565b945061455783615288565b925060208a01995050600181019050614533565b50829750879550505050505092915050565b600061458882615267565b61459281856152b3565b935061459d8361524c565b8060005b838110156145ce5781516145b588826144d2565b97506145c083615295565b9250506001810190506145a1565b5085935050505092915050565b6145e4816153cf565b82525050565b6145f3816153db565b82525050565b61460a614605826153db565b615553565b82525050565b600061461b82615272565b61462581856152c4565b935061463581856020860161544a565b61463e81615654565b840191505092915050565b60006146548261527d565b61465e81856152d5565b935061466e81856020860161544a565b61467781615654565b840191505092915050565b600061468d8261527d565b61469781856152e6565b93506146a781856020860161544a565b6146b081615654565b840191505092915050565b60006146c68261527d565b6146d081856152f7565b93506146e081856020860161544a565b80840191505092915050565b60006146f96032836152e6565b915061470482615665565b604082019050919050565b600061471c6025836152e6565b9150614727826156b4565b604082019050919050565b600061473f601c836152e6565b915061474a82615703565b602082019050919050565b60006147626024836152e6565b915061476d8261572c565b604082019050919050565b60006147856019836152e6565b91506147908261577b565b602082019050919050565b60006147a8602b836152e6565b91506147b3826157a4565b604082019050919050565b60006147cb602c836152e6565b91506147d6826157f3565b604082019050919050565b60006147ee6038836152e6565b91506147f982615842565b604082019050919050565b6000614811602a836152e6565b915061481c82615891565b604082019050919050565b60006148346029836152e6565b915061483f826158e0565b604082019050919050565b6000614857602e836152e6565b91506148628261592f565b604082019050919050565b600061487a6020836152e6565b91506148858261597e565b602082019050919050565b600061489d6031836152e6565b91506148a8826159a7565b604082019050919050565b60006148c0602c836152e6565b91506148cb826159f6565b604082019050919050565b60006148e36020836152e6565b91506148ee82615a45565b602082019050919050565b6000614906602f836152e6565b915061491182615a6e565b604082019050919050565b6000614929601f836152e6565b915061493482615abd565b602082019050919050565b600061494c6021836152e6565b915061495782615ae6565b604082019050919050565b600061496f6031836152e6565b915061497a82615b35565b604082019050919050565b6000614992601d836152e6565b915061499d82615b84565b602082019050919050565b60006149b56015836152e6565b91506149c082615bad565b602082019050919050565b610140820160008201516149e26000850182614b92565b5060208201516149f56020850182614b92565b506040820151614a086040850182614b92565b506060820151614a1b6060850182614b92565b506080820151614a2e6080850182614b92565b5060a0820151614a4160a0850182614b92565b5060c0820151614a5460c0850182614b92565b5060e0820151614a6760e0850182614b92565b50610100820151614a7c610100850182614b92565b50610120820151614a91610120850182614b92565b50505050565b61014082016000820151614aae60008501826144ea565b506020820151614ac160208501826144ea565b506040820151614ad460408501826144ea565b506060820151614ae760608501826144ea565b506080820151614afa60808501826144ea565b5060a0820151614b0d60a08501826144ea565b5060c0820151614b2060c08501826144ea565b5060e0820151614b3360e08501826144ea565b50610100820151614b486101008501826144ea565b50610120820151614b5d6101208501826144ea565b50505050565b604082016000820151614b796000850182614b92565b506020820151614b8c6020850182614b92565b50505050565b614b9b81615431565b82525050565b614baa81615431565b82525050565b614bc1614bbc82615431565b61555d565b82525050565b6000614bd382856145f9565b602082019150614be38284614bb0565b6020820191508190509392505050565b6000614bff82856146bb565b9150614c0b82846146bb565b91508190509392505050565b6000602082019050614c2c60008301846144f9565b92915050565b6000606082019050614c4760008301866144f9565b614c5460208301856144f9565b614c616040830184614ba1565b949350505050565b6000608082019050614c7e60008301876144f9565b614c8b60208301866144f9565b614c986040830185614ba1565b8181036060830152614caa8184614610565b905095945050505050565b6000606082019050614cca60008301866144f9565b614cd76020830185614ba1565b8181036040830152614ce98184614610565b9050949350505050565b600060a0820190508181036000830152614d0d818861457d565b90508181036020830152614d218187614508565b90508181036040830152614d358186614682565b90508181036060830152614d498185614682565b9050614d5860808301846144f9565b9695505050505050565b6000602082019050614d7760008301846145db565b92915050565b6000602082019050614d9260008301846145ea565b92915050565b6000604082019050614dad60008301856145ea565b614dba6020830184614ba1565b9392505050565b6000608082019050614dd660008301876145ea565b614de36020830186614ba1565b614df060408301856144f9565b614dfd6060830184614ba1565b95945050505050565b6000608082019050614e1b60008301876145ea565b614e286020830186614ba1565b614e356040830185614ba1565b614e426060830184614ba1565b95945050505050565b60006020820190508181036000830152614e658184614682565b905092915050565b60006020820190508181036000830152614e86816146ec565b9050919050565b60006020820190508181036000830152614ea68161470f565b9050919050565b60006020820190508181036000830152614ec681614732565b9050919050565b60006020820190508181036000830152614ee681614755565b9050919050565b60006020820190508181036000830152614f0681614778565b9050919050565b60006020820190508181036000830152614f268161479b565b9050919050565b60006020820190508181036000830152614f46816147be565b9050919050565b60006020820190508181036000830152614f66816147e1565b9050919050565b60006020820190508181036000830152614f8681614804565b9050919050565b60006020820190508181036000830152614fa681614827565b9050919050565b60006020820190508181036000830152614fc68161484a565b9050919050565b60006020820190508181036000830152614fe68161486d565b9050919050565b6000602082019050818103600083015261500681614890565b9050919050565b60006020820190508181036000830152615026816148b3565b9050919050565b60006020820190508181036000830152615046816148d6565b9050919050565b60006020820190508181036000830152615066816148f9565b9050919050565b600060208201905081810360008301526150868161491c565b9050919050565b600060208201905081810360008301526150a68161493f565b9050919050565b600060208201905081810360008301526150c681614962565b9050919050565b600060208201905081810360008301526150e681614985565b9050919050565b60006020820190508181036000830152615106816149a8565b9050919050565b60006101408201905061512360008301846149cb565b92915050565b60006101408201905061513f6000830184614a97565b92915050565b600060208201905061515a6000830184614ba1565b92915050565b60006040820190506151756000830185614ba1565b6151826020830184614ba1565b9392505050565b60006151936151a4565b905061519f82826154d9565b919050565b6000604051905090565b600067ffffffffffffffff8211156151c9576151c8615625565b5b602082029050602081019050919050565b600067ffffffffffffffff8211156151f5576151f4615625565b5b6151fe82615654565b9050602081019050919050565b600067ffffffffffffffff82111561522657615225615625565b5b61522f82615654565b9050602081019050919050565b6000819050602082019050919050565b6000819050602082019050919050565b600081519050919050565b600081519050919050565b600081519050919050565b600081519050919050565b6000602082019050919050565b6000602082019050919050565b600082825260208201905092915050565b600082825260208201905092915050565b600082825260208201905092915050565b600082825260208201905092915050565b600082825260208201905092915050565b600081905092915050565b600061530d82615431565b915061531883615431565b9250827fffffffffffffffffffffffffffffffffffffffffffffffffffffffffffffffff0382111561534d5761534c615598565b5b828201905092915050565b600061536382615431565b915061536e83615431565b92508261537e5761537d6155c7565b5b828204905092915050565b600061539482615431565b915061539f83615431565b9250828210156153b2576153b1615598565b5b828203905092915050565b60006153c882615411565b9050919050565b60008115159050919050565b6000819050919050565b60007fffffffff0000000000000000000000000000000000000000000000000000000082169050919050565b600073ffffffffffffffffffffffffffffffffffffffff82169050919050565b6000819050919050565b82818337600083830152505050565b60005b8381101561546857808201518184015260208101905061544d565b83811115615477576000848401525b50505050565b600061548882615431565b9150600082141561549c5761549b615598565b5b600182039050919050565b600060028204905060018216806154bf57607f821691505b602082108114156154d3576154d26155f6565b5b50919050565b6154e282615654565b810181811067ffffffffffffffff8211171561550157615500615625565b5b80604052505050565b600061551582615431565b91507fffffffffffffffffffffffffffffffffffffffffffffffffffffffffffffffff82141561554857615547615598565b5b600182019050919050565b6000819050919050565b6000819050919050565b600061557282615431565b915061557d83615431565b92508261558d5761558c6155c7565b5b828206905092915050565b7f4e487b7100000000000000000000000000000000000000000000000000000000600052601160045260246000fd5b7f4e487b7100000000000000000000000000000000000000000000000000000000600052601260045260246000fd5b7f4e487b7100000000000000000000000000000000000000000000000000000000600052602260045260246000fd5b7f4e487b7100000000000000000000000000000000000000000000000000000000600052604160045260246000fd5b6000601f19601f8301169050919050565b7f4552433732313a207472616e7366657220746f206e6f6e20455243373231526560008201527f63656976657220696d706c656d656e7465720000000000000000000000000000602082015250565b7f4552433732313a207472616e736665722066726f6d20696e636f72726563742060008201527f6f776e6572000000000000000000000000000000000000000000000000000000602082015250565b7f4552433732313a20746f6b656e20616c7265616479206d696e74656400000000600082015250565b7f4552433732313a207472616e7366657220746f20746865207a65726f2061646460008201527f7265737300000000000000000000000000000000000000000000000000000000602082015250565b7f4552433732313a20617070726f766520746f2063616c6c657200000000000000600082015250565b7f4e6f7420656e6f756768204c494e4b202d2066696c6c20636f6e74726163742060008201527f7769746820666175636574000000000000000000000000000000000000000000602082015250565b7f4552433732313a206f70657261746f7220717565727920666f72206e6f6e657860008201527f697374656e7420746f6b656e0000000000000000000000000000000000000000602082015250565b7f4552433732313a20617070726f76652063616c6c6572206973206e6f74206f7760008201527f6e6572206e6f7220617070726f76656420666f7220616c6c0000000000000000602082015250565b7f4552433732313a2062616c616e636520717565727920666f7220746865207a6560008201527f726f206164647265737300000000000000000000000000000000000000000000602082015250565b7f4552433732313a206f776e657220717565727920666f72206e6f6e657869737460008201527f656e7420746f6b656e0000000000000000000000000000000000000000000000602082015250565b7f45524337323155524953746f726167653a2055524920736574206f66206e6f6e60008201527f6578697374656e7420746f6b656e000000000000000000000000000000000000602082015250565b7f4552433732313a206d696e7420746f20746865207a65726f2061646472657373600082015250565b7f45524337323155524953746f726167653a2055524920717565727920666f722060008201527f6e6f6e6578697374656e7420746f6b656e000000000000000000000000000000602082015250565b7f4552433732313a20617070726f76656420717565727920666f72206e6f6e657860008201527f697374656e7420746f6b656e0000000000000000000000000000000000000000602082015250565b7f636f6e747261637420646f6573206e6f74206f776e207468697320746f6b656e600082015250565b7f4552433732314d657461646174613a2055524920717565727920666f72206e6f60008201527f6e6578697374656e7420746f6b656e0000000000000000000000000000000000602082015250565b7f4f6e6c7920565246436f6f7264696e61746f722063616e2066756c66696c6c00600082015250565b7f4552433732313a20617070726f76616c20746f2063757272656e74206f776e6560008201527f7200000000000000000000000000000000000000000000000000000000000000602082015250565b7f4552433732313a207472616e736665722063616c6c6572206973206e6f74206f60008201527f776e6572206e6f7220617070726f766564000000000000000000000000000000602082015250565b7f4f6e6c792063616c6c61626c652066726f6d20796f7572206368657374000000600082015250565b7f436865737420686173206265656e206f70656e65640000000000000000000000600082015250565b615bdf816153bd565b8114615bea57600080fd5b50565b615bf6816153cf565b8114615c0157600080fd5b50565b615c0d816153db565b8114615c1857600080fd5b50565b615c24816153e5565b8114615c2f57600080fd5b50565b615c3b81615431565b8114615c4657600080fd5b5056fea26469706673582212209523fe22720633881649d8fb53a467d2d805d8abda8d2ba5cf269acafbdcbf3e64736f6c63430008010033",
  "linkReferences": {},
  "deployedLinkReferences": {}
}